S31500000000380400204D02000055020000570200008F
S3150000001000000000000000000000000000000000DA
S31500000020000000000000000000000000590200006F
S3150000003000000000000000005B0200005D020000FE
S315000000400000000000000000000000005F02000049
S315000000505F0200005F0200005F0200005F02000016
S31500000060000000000000000000000000000000008A
S315000000705F0200005F0200005F0200005F020000F6
S31500000080000000000000000000000000000000006A
S315000000905F0200005F020000000000005F02000037
S315000000A0000000005F0200005F0200000000000088
S315000000B0000000000000000000000000000000003A
S315000000C00348854600F020F900480047290600004D
S315000000D03804002082B0009023480068C00F012831
S315000000E006D1FFE721492248086022480860FFE759
S315000000F02149224808601C4908680422104302224C
S315000001009043086000990020C0430860FFE71A4842
S315000001100068C003002801D5FFE7F8E71648006825
S31500000120C00600280AD5FFE70F4908680122D20752
S315000001301043086001A90220087010E00E490F481C
S315000001400860094908680622904308600868012289
S31500000150D2071043086001A900200870FFE701A834
S31500000160007802B07047C0461420024008200240C2
S31500000170851A7AE591836E7C1020024010000001FA
S3150000018083B0019000912B480068C00F012806D16A
S31500000190FFE729492948086029480860FFE72949F7
S315000001A02948086023490868022210430422904324
S315000001B00860009801990860FFE722480068C003BC
S315000001C0002801D5FFE7F8E71E480068C0060028AA
S315000001D00AD5FFE7174908680122D20710430860CD
S315000001E002A90320087020E001980068009988425F
S315000001F00AD0FFE70F4908680122D20710430860BA
S3150000020002A90420087010E00E490F480860094949
S31500000210086806229043086008680122D207104346
S31500000220086002A900200870FFE702A8007803B062
S315000002307047C0461420024008200240851A7AE51D
S3150000024091836E7C10200240100000010448804714
S3150000025004480047FEE7FEE7FEE7FEE7FEE7FEE7A7
S3150000026065050000C100000003460B439B0703D051
S3150000027009E008C9121F08C0042AFAD203E00B7865
S315000002800370401C491C521EF9D27047D2B201E0DD
S315000002900270401C491EFBD270470022F6E710B5DB
S315000002A013460A4604461946FFF7F0FF204610BDDE
S315000002B030B504460020034600E05B1C934203D29F
S315000002C0E05CCD5C401BF8D030BD70B5044600291B
S315000002D003D000202022012310E0002801D00020B6
S315000002E0C043C046C0460DE02546D5408D4205D3E5
S315000002F00D469540641B1D46954040191546521EF5
S31500000300002DF1DC214670BD1CB509480090094856
S31500000310019005460126009C05E0E36807CC3343BF
S315000003200C3C98471034AC42F7D3FFF7CDFE0000E3
S31500000330C4090000E409000080B582B08848019035
S315000003402C21FFF7AAFF019924480880DC20C880E9
S31500000350322008810020087500F022F802B080BD26
S3150000036080B582B07E4901912F2040022C2200F0F8
S3150000037058F8019800881949884203D0FFE7FFF72B
S31500000380DBFF0BE07648009000F0FAF80099498D03
S31500000390884203D0FFE7FFF7CFFFFFE702B080BD3B
S315000003A080B582B06E4800900C49018000F0E8F8F4
S315000003B0009948852F2040022C2200F03EF8014685
S315000003C001A801700078032805D0FFE701A800788E
S315000003D0022801D1FFE7FFE702B080BDA55A000061
S315000003E080B582B001900198FFF774FE02B080BD1F
S315000003F080B584B00290019102A800788007002899
S3150000040004D0FFE703A90320087006E002980199CB
S31500000410FFF7B6FE03A90870FFE703A8007804B04B
S3150000042080BD80B584B00390029101920298039931
S31500000430019AFFF719FF04B080BD80B58CB00A9011
S31500000440099108920A980999089AFFF731FF00283E
S3150000045004D1FFE70BA90120087067E00A98FFF7AF
S31500000460BFFF002804D0FFE70BA9022008705DE05B
S315000004700A980790089800F0A0F880080690099856
S31500000480049000200390FFE70398069988423DD226
S31500000490FFE7002005900290FFE70298032822DC80
S315000004A0FFE7039880000299401801900198089987
S315000004B088420AD2FFE704980199415C0298C0007D
S315000004C0814005980843059008E00298C000002185
S315000004D0C9438140059808430590FFE7FFE7029866
S315000004E0401C0290D9E707980599FFF781FF00287D
S315000004F004D0FFE70BA90320087017E00798001D3A
S315000005000790FFE70398401C0390BDE70A980999F6
S31500000510089AFFF7CDFE002804D0FFE70BA90420B8
S31500000520087003E00BA900200870FFE70BA800780D
S315000005300CB080BD0A4880787047C04681B001463D
S31500000540684601700078032804DBFFE7694600204F
S315000005500870FFE700980249887001B07047C046EE
S3150000056008000020034804490860714903480860F0
S315000005707047C0460000000008ED00E000127A0057
S3150000058084B003900398029001A90020088000908F
S31500000590FFE7009829280CD8FFE702980099415CEC
S315000005A00198401801A90880FFE70098401C0090B8
S315000005B0EFE701A8008804B0704781B0009000986A
S315000005C0C01C0321884301B07047000080B588B085
S315000005D00020029007900690059004900390022058
S315000005E0019000F077F90199029803910121049195
S315000005F0059106900B4803A900F0B4F808B080BD39
S3150000060080B50848022100F013F980BD80B5054881
S31500000610022100F0F2F880BD80B50248022100F008
S3150000062042F980BD0004005080B584B000200390DC
S3150000063000F08EF900F034F8FFF7C8FFFFF790FEE0
S31500000640FFF778FF02A908700298411C01A8017003
S315000006500078032804DBFFE701A900200870FFE704
S3150000066001A80078FFF76AFFFFF79AFE02A8007854
S31500000670002804D1FFE7FFF7C9FFFFE7FEE702A85E
S315000006800078012804D1FFE7FFF7BAFFFFE7FEE78E
S31500000690FFE7FFF7C1FF7D20C00000F00BF8F8E789
S315000006A0284908680422104308600868012210439C
S315000006B00860704780B582B00190FFE70198411E3F
S315000006C00191002805D0FFE77D20C00000F004F866
S315000006D0F4E702B080BD000080B582B00190AF485B
S315000006E000681449FFF7F1FD01460198484301905F
S315000006F001981149884204D3FFE7012000060090C3
S3150000070002E001980090FFE7009801900198401ED2
S315000007100A4908600A4900200860FFE7094800689E
S31500000720C003C00F002801D1FFE7F7E702B080BD84
S315000007300000002040420F000100000114E000E02C
S3150000074018E000E010E000E081B00090044908687D
S3150000075001229043009A1043086001B07047C046DA
S315000007600020024080B584B00390029100200190E1
S315000007700090FFE7029800680199C840002829D038
S31500000780FFE702980068019A012191400840009015
S315000007900098002819D0FFE703980099029A52683A
S315000007A000F04EF803980099029A926800F069F8F2
S315000007B002984068022807D1FFE703980099029A39
S315000007C0126900F022F8FFE7FFE7FFE70198401CF7
S315000007D00190CFE702984068012805D0FFE702980C
S315000007E04068022807D1FFE70398029A1168D26889
S315000007F000F038F8FFE704B080BD82B001900091A8
S3150000080000980199886202B0704783B00290019106
S3150000081000920298006A019A524352430F215143B3
S3150000082088430099514308430299086203B0704710
S3150000083082B00190009100980199886102B07047DA
S3150000084083B002900191009202980068019A524387
S315000008500321514388430099514308430299086094
S3150000086003B0704783B002900191009202984068ED
S31500000870019A90430099514308430299486003B096
S31500000880704783B00290019100920298C068019A65
S315000008905243032151438843009951430843029927
S315000008A0C86003B0704782B001900091009A019928
S315000008B048695040486102B070470000104800681F
S315000008C00121890208407047204800683821084005
S315000008D07047C04681B00090009A044908681043EA
S315000008E0086000BF00BF00BF01B070472C10024077
S315000008F00349086801221202104308607047C04687
S315000009000010024081B000901049086807221202C8
S315000009109043009A1043086001B0704781B0009080
S315000009200A490868072212039043009A1043086098
S3150000093001B0704781B000900449086807229043CF
S31500000940009A1043086001B07047C0460810024084
S3150000095080B582B00120FFF7F7FEFFF7C9FFFFE77A
S31500000960FFF7ACFF01218902884201D0FFE7F7E7D4
S315000009700220FFF7DFFFFFE7FFF7A6FF102801D0F1
S31500000980FFE7F9E700200190FFF7BCFF0198FFF7AA
S31500000990C5FF02490248086002B080BD0000002081
S315000009A0006CDC0202E008C8121F08C1002AFAD156
S315000009B070477047002001E001C1121F002AFBD1D9
S315000009C070470000E8090000000000200800000051
S315000009D0A4090000F009000008000020300400000F
S315000009E0B40900000000000000127A0000000000B8
S705000000C139
